:0300000002089D56
:0C089D00787FE4F6D8FD7581200208E4A5
:100800004C4344204F6B002A2A2A2A2A2A2A2A2AC1
:100810002A2A2A2A2A2A2A2A2A2A2A2A2A2A2A0D55
:100820000A002A2A2A2A2A2A3830353120546573A8
:1008300074732A2A2A2A2A2A2A2A0D0A0050726543
:100840007373203120666F72204C434420746573AB
:10085000740D0A005072657373203220666F722027
:100860004C454420746573740D0A004C4344207455
:1008700065737465640D0A004C4544207465737497
:1008800065640D0A00496E636F7272656374206B54
:0D089000657920707265737365640D0A0050
:040BBA00C101C100B4
:1009A9008E088F098B0A8A0B890CE50C150C7002CD
:1009B900150B14F9AA0BE4120942E509450870134D
:1009C900AB0AE50C150C7002150B14F9AA0B74305F
:1009D900120942E50945086032AE08AF097C007D7D
:1009E9000A120954ED2430FFAB0AE50C150C70020C
:1009F900150B14F9AA0BEF120942AE08AF097C00D6
:0C0A09007D0A1209548E088F0980C82253
:100A7800E4F5A0C282C280C2817F38FE120B6412E4
:100A88000AFF7F067E00120B64120AFF7F0C7E00AD
:100A9800120B64120AFF7F017E00120B64120AFF18
:070AA8007F807E00020B6459
:040AFF007F047E00F2
:100B0300E4FDFCC3ED9FEC9E5015E4FBFA0BBB0028
:0F0B1300010ABA01F8BB7EF50DBD00010C80E4AC
:010B220022B0
:100B6400C280C281D2828FA07F0A7E00120B03C290
:020B74008222DB
:100B7600D280C281D2828FA07F0A7E00120B03C26E
:020B86008222C9
:100ADA008B0E8A0F8910AB0EAA0FA9101209296072
:100AEA00130510E5107002050F14F9120929FF12F7
:050AFA000B7680E222F2
:100B8800758920758DCC759850D28ED2ACD2AF2293
:080BB2008F993001FDC2012200
:060AAF007BFF7A087907C5
:100AB5008B0E8A0F8910AB0EAA0FA9101209296097
:100AC500130510E5107002050F14F9120929FF121C
:050AD5000BB280E222DB
:090BA800E4FF3000FDC200AF992A
:010BB1002221
:03002300020B9835
:100B9800309905C299D20132309804C298D20032F5
:100B46007F807E00120B647BFF7A087900120ADA36
:0E0B56007FD07E07120B037F017E00020B642E
:100B2300D2977FF47E01120B03D297D296120B0356
:100B3300D296D295120B03D295D294120B03D29470
:030B4300020B039F
:100A1500E4F50D75900F120A78120B88120AAF7B58
:100A2500FF7A087922120AB5120AAF7BFF7A087994
:100A35003D120AB57BFF7A087954120AB5120BA844
:100A45008F0DE50D24CE600E047016120B467BFF4C
:100A55007A08796B8011120B237BFF7A08797880ED
:100A6500067BFF7A087985120AB57F647E00120B32
:030A75000380CA31
:1008A900020A15E493A3F8E493A34003F68001F246
:1008B90008DFF48029E493A3F85407240CC8C33350
:1008C900C4540F4420C8834004F456800146F6DF1F
:1008D900E4800B0102040810204080900BBAE47EEA
:1008E900019360BCA3FF543F30E509541FFEE49314
:1008F900A360010ECF54C025E060A840B8E493A3DB
:10090900FAE493A3F8E493A3C8C582C8CAC583CA05
:10091900F0A3C8C582C8CAC583CADFE9DEE780BEBD
:010BBE000036
:10092900BB010689828A83E0225002E722BBFE02CC
:09093900E32289828A83E49322FF
:10094200BB010689828A83F0225002F722BBFE0194
:02095200F3228E
:10095400BC000BBE0029EF8DF084FFADF022E4CC87
:10096400F875F008EF2FFFEE33FEEC33FCEE9DEC50
:10097400984005FCEE9DFE0FD5F0E9E4CEFD22ED96
:10098400F8F5F0EE8420D21CFEADF075F008EF2FE0
:10099400FFED33FD4007985006D5F0F222C398FDD1
:0509A4000FD5F0EA226E
:00000001FF
