:03000000020905ED
:0C090500787FE4F6D8FD75810A0208A78F
:1008850020202045453333372D3230323420202087
:1008950000202020205072617665656E2020202082
:0208A500200031
:10080000E4F5A0C282C280C2817F38FE1208E112E4
:10081000083C7F067E001208E112083C7F0C7E0037
:100820001208E112083C7F017E001208E112083C28
:070830007F807E000208E159
:090837007E001208E17F047E003E
:10084000E4FDFCC3ED9FEC9E5015E4FBFA0BBB00EE
:0F085000010ABA01F8BB7EF50DBD00010C80E472
:01085F002276
:1008E100C280C281D2828FA07F0A7E00120840C2DC
:0208F100822261
:1008F300D280C281D2828FA07F0A7E00120840C2BA
:0209030082224E
:100860008B088A09890AAB08AA09A90A1208C86074
:1008700013050AE50A7002050914F91208C8FF12E7
:0508800008F380E222F4
:1008A7001208007F801208377BFF7A0879851208C3
:1008B700607FC01208377BFF7A087996120860803C
:0108C700FE32
:1008C800BB010689828A83E0225002E722BBFE022E
:0908D800E32289828A83E4932261
:00000001FF
