:03000000021445A2
:0C144500787FE4F6D8FD758120020D755B
:1010630000F0010E012C0000014001680190000016
:1010730001C201E0000000000000000000000000C9
:1010830053610000000000000000000000000000A9
:101093005265000000000000000000000000000096
:1010A3004761000000000000000000000000000095
:1010B30041000000000000000000000000000000EC
:1010C3004D6100000000000000000000000000006F
:1010D300506100000000000000000000000000005C
:1010E30044686100000000000000000000000000F0
:1010F30042000000000000000000000000000000AB
:101103004E69000000000000000000000000000025
:101113005361000000000000000000000000000018
:1011230053696C656E6365000000000000000000F9
:101133004300000000000000000000000000000069
:101143002A00000000000000000000000000000072
:10115300300000000000000000000000000000005C
:101163002300000000000000000000000000000059
:101173004400000000000000000000000000000028
:10137800E4F5A0C282C280C2817F38FE1214211215
:1013880013FD7F067E001214211213FD7F0C7E00D0
:101398001214211213FD7F017E001214211213FD75
:0713A8007F807E000214218A
:0413FD007F047E00EB
:10140100E4FDFCC3ED9FEC9E5015E4FBFA0BBB0021
:0F141100010ABA01F8BB7EF50DBD00010C80E4A5
:0114200022A9
:10142100C280C281D2828FA07F0A7E00121401C2C3
:02143100822215
:10143300D280C281D2828FA07F0A7E00121401C2A1
:02144300822203
:1013D8008B108A118912AB10AA11A912120C4E6037
:1013E800130512E5127002051114F9120C4EFF12C2
:0513F800143380E22225
:1013AF00AD07AC068C8DAF058F8BC287C28FD28EE7
:1013BF00308FFDD287C28EC28F8C8DAF058F8BD2AF
:0913CF008E308FFDC28EC28F2208
:071451007F147E000214016C
:100D7500E4F508F509F50AF50B7589101213787570
:100D8500B00FAE08E5097802C333CE33CED8F925C6
:100D95000BF50FE50A3EF50E7F807E00121421AE9D
:100DA50008E5097806C333CE33CED8F92483F97420
:100DB500103EFA7BFFE50BC4F8540FC868FFE50A3F
:100DC500C454F048FEE92FF9EA3EFA1213D8E50FAC
:100DD50025E0FFE50E33FE74632FF58274103EF5B2
:100DE50083E493FE740193FF7C007D18120C67ABBE
:100DF50007AA06EA3395E0F9F87F007E367D6E0C8A
:100E0500121334C3E49FFFE49EAB07FAE50D640FAC
:100E1500450C602EE50F25E0FFE50E33FE74632FCC
:100E2500F58274103EF5837401937002E4936007B4
:100E3500AF03AE021213AFE5B0540F750C00F50DFC
:100E450080CA7F017E00121421E50D640F450C70E8
:100E55000BE5B0540F750C00F50D80ED121451AF74
:100E6500B0750C008F0D530D0F750C00E50D640F5B
:100E7500450C7003020D87750800750904E5091511
:100E85000970021508750C00750D01E5092404FDAE
:100E9500E43508FCE412090B8F178E168D158C149A
:100EA5007F007E007D007C40121183C004C005C018
:100EB50006C007AC0CAD0DE412090BD003D002D06F
:100EC50001D0001208001209448E0C8F0DC374FF67
:100ED500950DF50DE4950CF50C850DB0E5B0540FA9
:100EE500750C00F50D640F450C6092E50C6003026E
:100EF5000D84E50D24F5601624FE601B1460212485
:100F0500076003020D84E4F50AF50B020D84750AEA
:100F150000750B01020D84750A00750B02020D8424
:090F2500750A00750B03020D842E
:10080000EC4D6011E8497017ED33EC3304600DE4F2
:10081000FCFFFEFD22E933E8330470F80209B01250
:10082000097B58046009E4CC248150062850090251
:1008300009BA2840030209B7C0E0EB4A7044B98006
:1008400006D0E0FB0209A6EF4E701CBD8008EBFF4E
:10085000EAFEE9FD80EBE98DF0A4FEE5F00208E98F
:10086000E9CDF9EAFEEBFFEF89F0A4FCE5F0CE89D3
:10087000F0A42EFFE435F0CD89F0A42DFEE435F090
:100880008067EF4E7005BD80D780C3EF8BF0A4ACBE
:10089000F0EE8BF0A42CFCE435F0F8EF8AF0A42CF9
:1008A000E5F038FCE433CB8DF0A42CFCE5F03BF80C
:1008B000EE8AF0A42CFCE5F038F8E433CF89F0A4FC
:1008C0002CFCE5F038CF3400CE89F0A42FFFE5F002
:1008D0003EFEE433C98DF0A42EFEE5F039CD8AF05A
:1008E000A42FFFE5F03EFEE43DFD33D0E0FB5007D2
:1008F0000BBB000F0209BAEC2CFCEF33FFEE33FE0A
:06090000ED33FD02099237
:1009060075F020800E75F010800575F0087D007E6C
:10091600007F003392D530D503120C79EC334010AA
:10092600EF33FFEE33FEED33FDEC33FCD5F0ED2275
:0E093600E5F0247EA2D513CC92E7CDCEFF22B1
:10094400EDD2E7CD33EC3392D524814006E4FFFEAB
:10095400FDFC22FCE4CFCECDCC24E0501174FF800A
:10096400EDC3CC13CCCD13CDCE13CECF13CF0470A7
:07097400F030D5DE020C7922
:101183008F138E128D118C10E4FFFE7D807C3FAB9C
:1011930013AA12A911A810120AD77009AF13AE121D
:1011A300AD11AC1022AF13AE12AD11AC101209C5C4
:1011B300FBAF17AE16AD15AC141209C5FFBF01087E
:1011C300E4FFFE7D807C3F22EF64046022EB640435
:1011D300601DBB0127E4FFFEFDFCAB17AA16A91592
:1011E300A814120AD760084006E4FFFEFDFC22742F
:1011F300FFF517F516F515F514021291E4F518F538
:1012030019FFFEFDFCAB13AA12A911A810120AD7ED
:10121300504BAF17AE16AD15AC141209448E188F90
:1012230019AC18AD19EC12090BC8ECC8C9EDC9CA41
:10123300EECACBEFCBAF17AE16AD15AC141209E265
:10124300E4FBFAF9F8120AD770A5AF13AE12AD1189
:10125300AC10120B508F138E128D118C10AF13AE76
:1012630012AD11AC10120F62AB17AA16A915A81470
:101273001208001212D28F178E168D158C14E519D1
:1012830030E00B120B508F178E168D158C14AF1781
:07129300AE16AD15AC1422EC
:10097B00E9D2E7C933E833F892D5EDD2E7CD33ECC2
:07098B0033FC5002B2D5223B
:10099200EC30E7100FBF000C0EBE00080DBD0004C6
:1009A2000BEB6014A2D5EB13FCED92E7FD2274FF72
:1009B200FCFDFEFF22E480F8A2D574FF13FC7D80CB
:0309C200E480EFDF
:1009C500ED33EC33601004700FED547F7005740245
:0A09D50092E0227404220422E422BE
:1009DF000209B0E86480F8E933E83360110460F08D
:1009EF00ED33EC337009E8FCE9FDEAFEEBFF22047E
:1009FF0060DED3EB9FEA9EE99DE8C2E78CF0C2F779
:100A0F0095F0400CE8CCF8E9CDF9EACEFAEBCFFB44
:100A1F0012097B85D0F05804700320D5B3E8047019
:100A2F00075002B2D50209BA92D5EC0460F7E4CCB4
:100A3F00C0E0C398F8603B94186008400DD0E0FB0D
:100A4F00020992E4FBFAC9FC8028E830E406E4C905
:100A5F00FBE4CAFCE830E305E4C9CACBFCE8540761
:100A6F006010F8C3E913F9EA13FAEB13FBEC13FC6C
:100A7F00D8F130F52FC3E49CFCEF9BFFEE9AFEED0F
:100A8F0099FDD0E0FBEF4E4D4C701222DB030209B3
:100A9F00B7EC2CFCEF33FFEE33FEED33FDED30E71B
:100AAF00EB020992EF2BFFEE3AFEED39FDD0E0FBA2
:100ABF0050130BBB00030209BAED13FDEE13FEEF4B
:080ACF0013FFEC13FC02099275
:100AD70074F8CC6480CCC86480C8F58204604FC3C6
:100AE700EB9FF5F0EA9E42F0E99D42F0E89C45F065
:100AF700603C501DE5825FFFE582D313CB5BCBF4EF
:100B07002B5582FB50280ABA002409B90020088017
:100B17001DE5825BFBE582D313CF5FCFF4C3132FB1
:100B27005582FF50090EBE00050DBD00010CC3EB39
:100B37009FF5F0EA9E42F0E99D42F0E89C45F0609F
:090B470007CC4820E701B3EC22C1
:100B5000ED33EC33600A047003BD8004ECB2E7FCB3
:010B60002272
:10129A0033DA929E35B16011377FE5FE39218489B0
:1012AA003AAEC3FF3C1D955B3D6358473E75FDF062
:1012BA003F3172183F800000C2D50209BA0209B054
:1012CA00BD80FA50F30209B7ED33EC330460F17BC9
:1012DA003B7AAA79B8783F120800ED33EC3392D5FD
:1012EA00247B5011A2D570DB500BED4480240450AE
:1012FA0004A2D580CEEFFBEEFAEDF9ECF812094420
:10130A00EFF582F404FC1209101209E6C082901269
:10131A009A7409120C10ED33CC33D0F092D525F023
:0A132A00A2D57001C313CC13FD22FD
:100F2E003E9248DA3ECCCCCD3F2AAAAB4000000020
:100F3E003F8000003F9837F03FB504F33FD744FCA5
:100F4E003E3172173EB172173F0515913EDE5BD9E9
:100F5E00D2008002C200EDD2E7F8CD33EC3304703C
:100F6E000BBD800592D50209BA0209B040FBD3141D
:100F7E0060F2F5F07C3FEE7A00C39496C8948B40F5
:100F8E00230AC89469C8941A401A0AC89468C89467
:100F9E001F40110AC8945AC89425400805F07A00DB
:100FAE00CDC2E7CDC0F08C1A8D1B8E1C8F1DEA238F
:100FBE0023C0E0243EF582E4340FF583120C971221
:100FCE0009E6ECC0E0EDC0E0EEC0E0EFC0E0120CD0
:100FDE0087A81AA91BAA1CAB1D1209E2D0E0FBD0F0
:100FEE00E0FAD0E0F9D0E0B2E7F8120B648C1A8D7B
:100FFE001B8E1C8F1D900F2E7403120C01A81AA9A4
:10100E001BAA1CAB1D120800D0E0600F244AF5820B
:10101E00E4340FF583120C971209E68C1A8D1B8E91
:10102E001C8F1DD0E0C3947FFDE49400FC12090BCD
:10103E007B187A727931783F120800A81AA91BAA78
:10104E001CAB1D1209E630000B7BD97A5B79DE787A
:05105E003E1208002213
:100B61000209BAEC5D046005E8590470030209B09A
:100B710012097B580460F6EC4860F2EC7004FDFE4B
:100B8100FF22C860DB2481C85009C3986002500667
:100B91000209B79850CAF582E9294B4A7005AB8220
:100BA1000209A675F0007C1A7880C3EF9BEE9AEDDE
:100BB10099400DC3EF9BFFEE9AFEED99FDE842F0DF
:100BC100DC23ACF0D0E0FFD0E0FED0E0FDAB822032
:100BD100E7101BEB60BAEC2CFCEF33FFEE33FEEDBC
:100BE10033FD020992E803F830E705C0F075F00023
:100BF100EF2FFFEE33FEED33FD40B830E7C280AAA0
:100C0100C0E0EFFBEEFAEDF9ECF8120800D0E0F5E8
:100C1100F0EFFBEEFAEDF9ECF8120C87A3A3A3A316
:100C2100E8C0E0E9C0E0EAC0E0EBC0E0C0F01208D3
:100C310000120C97A3A3A3A31209E6D0F0D0E0FB06
:0D0C4100D0E0FAD0E0F9D0E0F8D5F0D422F0
:100C4E00BB010689828A83E0225002E722BBFE02A4
:090C5E00E32289828A83E49322D7
:100C6700EF8DF0A4A8F0CF8CF0A428CE8DF0A42EA1
:020C7700FE225B
:10133400C2D5E830E70FB2D5E4C39BFBE49AFAE4E4
:1013440099F9E498F8EC30E717B2D512136A120C45
:10135400E3E4C39BFBE49AFAE499F9E498F8800384
:10136400120CE330D50DE4C39FFFE49EFEE49DFD23
:04137400E49CFC22D7
:0E0C7900C3E49FFFE49EFEE49DFDE49CFC228C
:100C8700E493FC740193FD740293FE740393FF22B3
:100C9700E493F8740193F9740293FA740393FB22B3
:100CA70075F008758200EF2FFFEE33FECD33CDCC04
:100CB70033CCC58233C5829BED9AEC99E582984087
:100CC7000CF582EE9BFEED9AFDEC99FC0FD5F0D664
:100CD700E4CEFBE4CDFAE4CCF9A88222B800C1B98E
:100CE7000059BA002DEC8BF084CFCECDFCE5F0CBCC
:100CF700F97818EF2FFFEE33FEED33FDEC33FCEB05
:100D070033FB10D703994004EB99FB0FD8E5E4F9BF
:100D1700FA227818EF2FFFEE33FEED33FDEC33FCAC
:100D2700C933C910D7059BE99A4007EC9BFCE99AA0
:100D3700F90FD8E0E4C9FAE4CCFB2275F010EF2FE5
:100D4700FFEE33FEED33FDCC33CCC833C810D707E5
:100D57009BEC9AE899400AED9BFDEC9AFCE899F820
:0E0D67000FD5F0DAE4CDFBE4CCFAE4C8F922B3
:00000001FF
