:0300000002115892
:0C115800787FE4F6D8FD75815D02119FE0
:100E3E004163636F756E7420486F6C6465723A20FF
:100E4E0053746576656E0D0A004163636F756E743B
:100E5E002042616C616E63653A20000D0A004163A9
:100E6E00636F756E7420486F6C6465723A20476FBD
:100E7E0072646F6E0D0A004E6F2073756368206189
:100E8E0063636F756E742C20706C6561736520657D
:100E9E006E7465722076616C696420646574616934
:100EAE006C730D0A00456E74657220416D6F756E20
:100EBE00742C20696E2068756E6472656473203AB6
:100ECE002000496E76616C696420416D6F756E7499
:100EDE000D0A00496E73756666696369656E7420E6
:100EEE0046756E64730D0A0025640052656D616966
:100EFE006E696E672042616C616E63653A200035E3
:100F0E003030204E6F7465733A20002C2031303013
:100F1E00204E6F7465733A20000D0A456E7465722B
:100F2E0020416D6F756E742C20696E2068756E642D
:100F3E0072656473203A20005072657373204120ED
:100F4E00666F72204163636F756E7420646973708F
:100F5E006C617920616E64205720666F722077690C
:100F6E00746864726177696E6720636173680D0AD5
:100F7E000048656C6C6F2C20506C65617365206544
:100F8E006E746572204163636F756E74204E756D5D
:100F9E006265720D0A005769746864726177207316
:100FAE00746174652C20656E746572206163636F65
:100FBE00756E74206E756D6265720D0A00496E63F2
:100FCE006F7272656374206B6579207072657373CE
:050FDE0065640D0A002E
:04146C00C10AC109E7
:1011E400AB2CAA2DA92E1210ABFFAEF07B007A0017
:0211F40079433D
:1011F6008E4A8F4B8B4C8A4D894EE54E154E7002AA
:10120600154D14F9AA4DE4120FFCE54B454A70132F
:10121600AB4CE54E154E7002154D14F9AA4D7430BF
:10122600120FFCE54B454A6032AE4AAF4B7C007D5F
:101236000A121020ED2430FFAB4CE54E154E70021D
:10124600154D14F9AA4DEF120FFCAE4AAF4B7C00B8
:0C1256007D0A1210208E4A8F4B80C822A7
:10134400E4F5A0C282C280C2817F38FE1214161254
:1013540013F27F067E001214161213F27F0C7E0025
:101364001214161213F27F017E001214161213F2D5
:071374007F807E00021416C9
:0413F2007F047E00F6
:1013F600E4FDFCC3ED9FEC9E5015E4FBFA0BBB002D
:0F140600010ABA01F8BB7EF50DBD00010C80E4B0
:0114150022B4
:10141600C280C281D2828FA07F0A7E001213F6C2DA
:02142600822220
:10142800D280C281D2828FA07F0A7E001213F6C2B8
:0214380082220E
:1013CD008B088A09890AAB08AA09A90A120FE360DA
:1013DD0013050AE50A7002050914F9120FE3FF124D
:0513ED00142880E2223B
:10143A00758920758DCC759850D28ED2ACD2AF22D8
:081464008F99300AFDC20A2233
:06137B007BFF7A0E79579A
:101381008B4A8A4B894CAB4AAA4BA94C120FE3609A
:1013910013054CE54C7002054B14F9120FE3FF12D3
:0513A100146480E2224B
:09145A00E4FF3009FDC209AF995D
:011463002266
:0300230002144A7A
:10144A00309905C299D20A32309804C298D2093228
:0612E0008F288A298B2AE9
:1012E600AF05AE047B007A0079311211F67B007AE5
:1012F600007937AF2AAE291211F6E52824CE6017F9
:101306000470317BFF7A0E793E12138112137B7BB8
:10131600007A00792B80127BFF7A0E796C1213818A
:1013260012137B7B007A0079311213817BFF7A0ED0
:0D133600796980067BFF7A0E79851213819C
:011343002287
:080B5C008F288B298A2A892BBE
:100B6400E4F52FF530F531F5321210ABFFAEF07B22
:100B7400007A00793D1211F61211E4E52824CE70B2
:100B840003020CD4046003020E347BFF7A0E793E18
:100B940012138112137B7B007A0079371213817B45
:100BA400FF7A0E79691213817BFF7A0E79B31213DF
:100BB4008112145A8F3012145A8F2F7BFF7A0E79B8
:100BC40069121381E530C394304015E530D394396C
:100BD400500EE52FC394304007E52FD394394003DA
:100BE400020D27E52F24D0FFE434FFFE7C007D6452
:100BF40012100EAA06AB07E53024D0FFE434FFFE42
:100C04007C037DE812100EEF2BF532EE3AF531AB92
:100C140029AA2AA92B1210ABFFD3E5329FE5F06471
:100C240080F8E5316480984003020D76AE31AF322E
:100C34007C017DF41210758E338F34AE31AF327C6B
:100C4400017DF41210757E007F64CFCDCFCECCCE63
:100C54001210758E358F36754DFF754E0E754FF625
:100C64008533508534517B007A00794312085C75D2
:100C74004DFF754E0E754FF68535508536517B0008
:100C84007A00794612085CAB29AA2AA92B1210AB68
:100C9400C39532FFE5F095318FF01210D6753730D9
:100CA400AB29AA2AA92B1210ABFFAEF07B007A0065
:100CB400793D1211F67BFF7A0E79F91213817B00CC
:100CC4007A0079371213817BFF7A0E7969020E0557
:100CD4007BFF7A0E796C12138112137B7B007A00EE
:100CE400793D1213817FD07E071213F67BFF7A0FB2
:100CF400792712138112145A7531008F3212145A43
:100D04008F3012145A8F2FE530C394304015E530DC
:100D1400D39439500EE52FC394304007E52FD39474
:100D24003940097BFF7A0E79D0020E3AE52F24D0A0
:100D3400FFE434FFFE7C007D6412100EAA06AB07AC
:100D4400E53024D0FFE434FFFE7C037DE812100E6E
:100D5400EF2BF532EE3AF531AB2CAA2DA92E121059
:100D6400ABFFD3E5329FE5F06480F8E53164809809
:100D740040097BFF7A0E79E1020E3AAE31AF327C44
:100D8400017DF41210758E338F34AE31AF327C0195
:100D94007DF41210757E007F64CFCDCFCECCCE1201
:100DA40010758E358F36754DFF754E0E754FF68561
:100DB40033508534517B007A00794312085C754DB9
:100DC400FF754E0E754FF68535508536517B007A8A
:100DD40000794612085CAB2CAA2DA92E1210ABC3C5
:100DE4009532FFE5F095318FF01210D6753D301233
:100DF40011E47BFF7A0E79F91213817B007A007972
:100E04003D1213817BFF7A0F790D1213817B007AD7
:100E14000079431213817BFF7A0F79191213817BB6
:100E2400007A0079461213817BFF7A0E7969800675
:090E34007BFF7A0E79851213810F
:010E3D002292
:10126200E4F522F5237524277525107526277527A1
:101272001012134412143A7BFF7A0F79461213812B
:1012820012145A8F22E5222489601F2416703D7B96
:10129200FF7A0F797F12138112145A8F23AB27AA78
:1012A20026AD25AC241212E0802B7BFF7A0F79A4A5
:1012B20012138112145A8F23752C00752D00752E6E
:1012C200267B007A007924120B5C80097BFF7A0F5F
:0E12D20079CB1213817F647E001213F680998F
:10116400021262E493A3F8E493A34003F68001F22D
:1011740008DFF48029E493A3F85407240CC8C3338C
:10118400C4540F4420C8834004F456800146F6DF5B
:10119400E4800B010204081020408090146CE47E6B
:1011A400019360BCA3FF543F30E509541FFEE49350
:1011B400A360010ECF54C025E060A840B8E493A317
:1011C400FAE493A3F8E493A3C8C582C8CAC583CA42
:1011D400F0A3C8C582C8CAC583CADFE9DEE780BEFA
:01147000007B
:100FE300BB010689828A83E0225002E722BBFE020C
:090FF300E32289828A83E493223F
:100FFC00BB010689828A83F0225002F722BBFE01D4
:02100C00F322CD
:10100E00EF8DF0A4A8F0CF8CF0A428CE8DF0A42EF6
:02101E00FE22B0
:10102000BC000BBE0029EF8DF084FFADF022E4CCB4
:10103000F875F008EF2FFFEE33FEEC33FCEE9DEC7D
:10104000984005FCEE9DFE0FD5F0E9E4CEFD22EDC3
:10105000F8F5F0EE8420D21CFEADF075F008EF2F0D
:10106000FFED33FD4007985006D5F0F222C398FDFE
:051070000FD5F0EA229B
:10107500C2D5EC30E709B2D5E4C39DFDE49CFCEE96
:1010850030E715B2D5E4C39FFFE49EFE121020C3DE
:10109500E49DFDE49CFC800312102030D507C3E4D9
:0610A5009FFFE49EFE2205
:1010AB00BB010A89828A83E0F5F0A3E02250068710
:1010BB00F009E71922BBFE07E3F5F009E3192289D2
:0B10CB00828A83E493F5F07401932205
:1010D600BB010A89828A83F0E5F0A3F0225006F765
:0F10E60009A7F01922BBFE06F3E5F009F3192262
:10080000E559244DF8E6055922784A300702784D1B
:10081000E475F001121122020FE32000EB7F2ED2CB
:10082000008018EF540F2490D43440D4FF30040BD0
:10083000EF24BFB41A0050032461FFE55A6002158B
:100840005A055DE55D7002055C30070D784AE47578
:10085000F001121122EF020FFC0213A67403D2075B
:100860008003E4C207F5598B4A8A4B894CE4F55A58
:10087000F55CF55DE55A60077F2012083B80F57551
:100880005BFFC201C200C202C203C205C206C208A7
:10089000120809FF700D3007057F0012084CAF5D8C
:1008A000AE5C22B4255FC2D5C204120809FF24D071
:1008B000B40A00501A75F00A785A30D50508B6FF08
:1008C0000106C6A426F620D5047002D20380D924DE
:1008D000CFB41A00EF5004C2E5D204020A4CD20190
:1008E00080C6D20080C0D20280BCD2D580BAD205E8
:1008F00080B47F2012083B2002077401B55A0040E3
:10090000F1120800FF12083B020874D208D20680D8
:1009100095120800FB120800FA120800F94A4B7001
:1009200006791D7A0B7BFF20022EE55A602A7E0095
:100930008E827583001210F560060EEE655B70F016
:10094000C2D5EBC0E0EAC0E0E9C0E0EE120A93D005
:10095000E0F9D0E0FAD0E0FB120FE3FF60AAEBC0B1
:10096000E0EAC0E0E9C0E012083BD0E02401F9D0A1
:10097000E03400FAD0E0FBE55B0460DCD55BD980B5
:10098000877BFF7A0A798FD202809C791080027966
:1009900008C206C2088008D2D5790A8004790AC242
:1009A000D5E55B047002F55BE4FAFDFEFF1208007A
:1009B000FC7B08200113120800FD7B1030000A1296
:1009C0000800FE120800FF7B20EC3382D592D55040
:1009D00013C3E43000069FFFE49EFEE42001039D64
:1009E000FDE49CFCE4CBF8C201EC700CCFCECDCC86
:1009F000E824F8F870F38017C3EF33FFEE33FEED11
:100A000033FDEC33FCEB33FB994002FB0FD8E9EBF1
:100A1000300105F8D0E0C448B201C0E00AEC4D4E08
:100A20004F78207B0070C2EAB55B0040BCC0E0128A
:100A30000A95D0F0D0E0200104C4C0E0C4B201C0E7
:100A4000F0120824D0F0D5F0EB020874121132092C
:100A50001153098B5808E24C08DE42098F4F099761
:0F0A60004409974908F743099D550981460981C3
:100A6F00450981470B3D5008E62D08EA2E090D2B4D
:100A7F0008EE23090B200B262A08A64800000905BB
:100A8F003F3F3F00790AA2D5200314300509B91062
:100A9F00020404B9080104A2D52006025001042063
:100AAF0002689202B55A005034C0E07F203003191B
:100ABF007F30A20272067205500F120AECC202C2F8
:100ACF0006C205C2087F30800F300503E9C0E0126F
:100ADF00083B300503D0E0F9D0E0B55ACC3005170C
:100AEF007F30B9100C12083B7F583004077F788095
:100AFF0003B9080312083B3002057F2D02083B7F24
:100B0F00202008F87F2B2006F322920280CF286E38
:100B1F00756C6C2900D2011208003001F8C20178FF
:100B2F005A30D50108F60208A62D5043495812082D
:100B3F00002403B405004001E4900B389312082CF5
:0D0B4F00743A12082CD203755A0402098B67
:1010F500BB010CE58229F582E5833AF583E02250B0
:1011050006E92582F8E622BBFE06E92582F8E222F9
:0D111500E58229F582E5833AF583E4932213
:10112200FAE6FB0808E6F925F0F618E6CA3AF622CE
:10113200D083D082F8E4937012740193700DA3A34C
:1011420093F8740193F5828883E473740293686060
:06115200EFA3A3A380DF60
:1013A600EFB40A07740D1213B1740A309811A89994
:1013B600B8130CC2983098FDA899C298B811F630A7
:0713C60099FDC299F599227F
:00000001FF
