:03000000020D19D5
:0C0D1900787FE4F6D8FD758116020B46C9
:100C0D00496E70757420313A20202020202020203C
:100C1D0000496E70757420323A202020202020204B
:100C2D00200050726564696374696F6E3A202020EC
:100C3D00202000436C617373203120202020202060
:100C4D0020202000436C617373203220202020204F
:100C5D002020202000C210000040A0000040E00035
:010C6D000086
:100C6E00E4F5A0C282C280C2817F38FE120CF5125A
:100C7E000CAC7F067E00120CF5120CAC7F0C7E00C5
:100C8E00120CF5120CAC7F017E00120CF5120CAC9E
:070C9E007F807E00020CF5CF
:0B0CA5007F807E00120CF57F047E00B3
:100CB000E4FDFCC3ED9FEC9E5015E4FBFA0BBB007A
:0F0CC000010ABA01F8BB7EF50DBD00010C80E4FE
:010CCF002202
:100CF500C280C281D2828FA07F0A7E00120CB0C250
:020D0500822248
:100D0700D280C281D2828FA07F0A7E00120CB0C22D
:020D1700822236
:100CD0008B148A158916AB14AA15A916120AFF607F
:100CE000130516E5167002051514F9120AFFFF1216
:050CF0000D0780E22267
:100B4600120C6E120CA57BFF7A0C790D120CD07F5D
:100B5600887E13120CB075900FAC90E4120A818F48
:100B66000B8E0A8D098C087FC0120CA77BFF7A0CAE
:100B7600791E120CD07F887E13120CB075900FACC4
:100B860090E4120A818F0F8E0E8D0D8C0C120CA51F
:100B96007BFF7A0C792F120CD07FC0120CA7900C19
:100BA60066120B26AB0BAA0AA909A8081208F89028
:100BB6000C62120B36120807C004C005C006C00737
:100BC600900C6A120B26AB0FAA0EA90DA80C1208E0
:100BD600F8D003D002D001D0001208078F138E126E
:100BE6008D118C10E4FFFEFDFCAB13AA12A911A80F
:100BF600101209FE7BFF50067A0C794080047A0CAD
:070C06007951120CD080FEB1
:10080000020AEAE86480F8E933E83360110460F032
:10081000ED33EC337009E8FCE9FDEAFEEBFF22045E
:1008200060DED3EB9FEA9EE99DE8C2E78CF0C2F759
:1008300095F0400CE8CCF8E9CDF9EACEFAEBCFFB25
:10084000120AB585D0F05804700320D5B3E80470BF
:10085000075002B2D5020AF492D5EC0460F7E4CC5A
:10086000C0E0C398F8603B94186008400DD0E0FBEE
:10087000020ACCE4FBFAC9FC8028E830E406E4C9AB
:10088000FBE4CAFCE830E305E4C9CACBFCE8540742
:100890006010F8C3E913F9EA13FAEB13FBEC13FC4D
:1008A000D8F130F52FC3E49CFCEF9BFFEE9AFEEDF0
:1008B00099FDD0E0FBEF4E4D4C701222DB03020A93
:1008C000F1EC2CFCEF33FFEE33FEED33FDED30E7C2
:1008D000EB020ACCEF2BFFEE3AFEED39FDD0E0FB48
:1008E00050130BBB0003020AF4ED13FDEE13FEEFF1
:0808F00013FFEC13FC020ACC1B
:1008F800EC4D6011E8497017ED33EC3304600DE4FA
:10090800FCFFFEFD22E933E8330470F8020AEA121C
:100918000AB558046009E4CC24815006285009021D
:100928000AF4284003020AF1C0E0EB4A7044B98097
:1009380006D0E0FB020AE0EF4E701CBD8008EBFF1A
:10094800EAFEE9FD80EBE98DF0A4FEE5F00209E19D
:10095800E9CDF9EAFEEBFFEF89F0A4FCE5F0CE89DA
:10096800F0A42EFFE435F0CD89F0A42DFEE435F097
:100978008067EF4E7005BD80D780C3EF8BF0A4ACC5
:10098800F0EE8BF0A42CFCE435F0F8EF8AF0A42C00
:10099800E5F038FCE433CB8DF0A42CFCE5F03BF813
:1009A800EE8AF0A42CFCE5F038F8E433CF89F0A403
:1009B8002CFCE5F038CF3400CE89F0A42FFFE5F009
:1009C8003EFEE433C98DF0A42EFEE5F039CD8AF061
:1009D800A42FFFE5F03EFEE43DFD33D0E0FB5007D9
:1009E8000BBB000F020AF4EC2CFCEF33FFEE33FED6
:0609F800ED33FD020ACC04
:1009FE0074F8CC6480CCC86480C8F58204604FC3A0
:100A0E00EB9FF5F0EA9E42F0E99D42F0E89C45F03E
:100A1E00603C501DE5825FFFE582D313CB5BCBF4C8
:100A2E002B5582FB50280ABA002409B900200880F1
:100A3E001DE5825BFBE582D313CF5FCFF4C3132F8B
:100A4E005582FF50090EBE00050DBD00010CC3EB13
:100A5E009FF5F0EA9E42F0E99D42F0E89C45F06079
:090A6E0007CC4820E701B3EC229B
:100A770075F020800E75F010800575F0087D007EFA
:100A8700007F003392D530D503120B18EC3340109A
:100A9700EF33FFEE33FEED33FDEC33FCD5F0ED2203
:0E0AA700E5F0247EA2D513CC92E7CDCEFF223F
:100AB500E9D2E7C933E833F892D5EDD2E7CD33EC87
:070AC50033FC5002B2D52200
:100ACC00EC30E7100FBF000C0EBE00080DBD00048B
:100ADC000BEB6014A2D5EB13FCED92E7FD2274FF37
:100AEC00FCFDFEFF22E480F8A2D574FF13FC7D8090
:030AFC00E480EFA4
:100AFF00BB010689828A83E0225002E722BBFE02F5
:090B0F00E32289828A83E4932227
:0E0B1800C3E49FFFE49EFEE49DFDE49CFC22EE
:100B2600E493FC740193FD740293FE740393FF2215
:100B3600E493F8740193F9740293FA740393FB2215
:00000001FF
