:03000000020100FA
:0801000031303156317F80FEE1
:1001300078017950E8C4F590319075900F8590F072
:1001400008E8C4F590319075900FE590C425F0F75C
:100150000809B809DF22795087F074BF95F0500480
:1001600077088016747F95F050047704800C743FF4
:1001700095F0500477028002770109B954DA2275AC
:1001800090007950E7F590093190B954F731822207
:10019000C0007864319BD8FCD00022C00078A03128
:0F01A000A6D8FCD00022C00078F4D8FED00022F0
:00000001FF
