:030000000214C423
:0C14C400787FE4F6D8FD75814702150B17
:1016B800256600566F6C742E3A2000206D56005433
:0B16C800656D702E3A2000206F43007B
:1016E900C109060E30303030300006083030303055
:0216F9003000BF
:10161100E4F5A0C282C280C2817F38FE1216FC129C
:1016210016947F067E001216FC1216947F0C7E0023
:101631001216FC1216947F017E001216FC121694EB
:071641007F807E000216FC11
:041694007F047E0051
:10169800E4FDFCC3ED9FEC9E5015E4FBFA0BBB0088
:0F16A800010ABA01F8BB7EF50DBD00010C80E40C
:0116B7002210
:10138A008E2C8F2D8B2E8A2F89307C277D10120D63
:10139A0079EF2430120D45AE2CAF2D7C277D10122B
:1013AA000D797E037FE8CFCDCFCECCCE120D79EF6B
:1013BA002430AB2EAA2FA930900001120D57AE2C63
:1013CA00AF2D7C037DE8120D797E007F64CFCDCFEF
:1013DA00CECCCE120D79EF2430AB2EAA2FA93090A5
:1013EA000002120D57AE2CAF2D7C007D64120D79D0
:1013FA007E007F0ACFCDCFCECCCE120D79EF24302E
:10140A00AB2EAA2FA930900003120D57AE2CAF2D88
:10141A007C007D0A120D79ED2430AB2EAA2FA9305B
:06142A00900004020D57C2
:101430008E158F168B178A1889197C277D10120D2F
:10144000797E037FE8CFCDCFCECCCE120D79EF24BD
:1014500030120D45AE15AF167C037DE8120D797E76
:10146000007F64CFCDCFCECCCE120D79EF2430AB40
:1014700017AA18A919900001120D57AE15AF167CC6
:10148000007D64120D797E007F0ACFCDCFCECCCE09
:10149000120D79EF2430AB17AA18A9199000021287
:1014A0000D57900003742E120D57AE15AF167C0029
:1014B0007D0A120D79ED2430AB17AA18A9199000F6
:0414C00004020D57BE
:1016FC00C280C281D2828FA07F0A7E00121698C24D
:02170C00822237
:10170E00D280C281D2828FA07F0A7E00121698C22A
:02171E00822225
:10166F008B2C8A2D892EAB2CAA2DA92E120CFF6044
:10167F0013052EE52E7002052D14F9120CFFFF1223
:05168F00170E80E222AD
:0C17200075C33F43B104D2AF43C3402265
:0815B5008F3B8E3A8D398C3812
:1015BD00C2097810120DDCE48FC53009FDA914C2E3
:1015CD0009AF3BAE3AAD39AC387808120DDC8FC59A
:1015DD003009FDAB14C209E53BFF8FC53009FDADE8
:1015ED0014EB7B00FA7E00E97810C333CE33CED8EE
:1015FD00F92BFFEE3AFE7C00EF2DFFEC3EFE33950E
:03160D00E0FDFC01
:0116100022B7
:03004B000216D3C7
:1016D300C0E0C0D0E5C454F02480700585C514D2A1
:0616E30009D0D0D0E03276
:03172C00D2942232
:02155000AB07E7
:10155200E4F533F532753101F530EF75F010A47E04
:10156200005470FFEE3395E0FDFCEF4480FFED7810
:1015720008120DEF8F378E368D358C34E5332537D3
:10158200FFE5323536FEE5313535FDE5303534FCE3
:10159200C2941215B58F2F8E2E8D2D8C2CD294E5E0
:1015A2002FF52FE52E5403F52EE4F52DF52CAE2E56
:0215B200AF2F59
:0115B4002214
:1012A700E4F522F523F527F526F525F52412172071
:0612B70012172C121611A3
:1012BD007F041215508E288F29AC28AD29E4120910
:1012CD000B7B827A73794E78401208001209448E96
:1012DD00228F237F807E001216FC7F037E00121664
:1012ED00987BFF7A1679BB12166F7B007A00790E08
:1012FD00AF23AE2212138A7B007A00790E12166F7D
:10130D007BFF7A1679C312166F7FE87E031216984B
:10131D007F031215508E2A8F2BAC2AAD2BE41209A8
:10132D000B7B357A2979A5783E1208008F278E26FA
:10133D008D258C247FC07E001216FC1216947BFF27
:10134D007A1679C712166F752FFF7530167531B86D
:10135D008527358526348525338524327B007A0013
:10136D007908120E947B007A00790812166F7BFFB4
:0A137D007A1679CF12166F1216943B
:031387000212BD92
:10080000EC4D6011E8497017ED33EC3304600DE4F2
:10081000FCFFFEFD22E933E8330470F80209B01250
:10082000097B58046009E4CC248150062850090251
:1008300009BA2840030209B7C0E0EB4A7044B98006
:1008400006D0E0FB0209A6EF4E701CBD8008EBFF4E
:10085000EAFEE9FD80EBE98DF0A4FEE5F00208E98F
:10086000E9CDF9EAFEEBFFEF89F0A4FCE5F0CE89D3
:10087000F0A42EFFE435F0CD89F0A42DFEE435F090
:100880008067EF4E7005BD80D780C3EF8BF0A4ACBE
:10089000F0EE8BF0A42CFCE435F0F8EF8AF0A42CF9
:1008A000E5F038FCE433CB8DF0A42CFCE5F03BF80C
:1008B000EE8AF0A42CFCE5F038F8E433CF89F0A4FC
:1008C0002CFCE5F038CF3400CE89F0A42FFFE5F002
:1008D0003EFEE433C98DF0A42EFEE5F039CD8AF05A
:1008E000A42FFFE5F03EFEE43DFD33D0E0FB5007D2
:1008F0000BBB000F0209BAEC2CFCEF33FFEE33FE0A
:06090000ED33FD02099237
:1009060075F020800E75F010800575F0087D007E6C
:10091600007F003392D530D503120DCEEC33401054
:10092600EF33FFEE33FEED33FDEC33FCD5F0ED2275
:0E093600E5F0247EA2D513CC92E7CDCEFF22B1
:10094400EDD2E7CD33EC3392D524814006E4FFFEAB
:10095400FDFC22FCE4CFCECDCC24E0501174FF800A
:10096400EDC3CC13CCCD13CDCE13CECF13CF0470A7
:07097400F030D5DE020DCECC
:100E3800E543242FF8E6054322782C300702782F63
:100E4800E475F001120E02020CFF2000EB7F2ED297
:100E5800008018EF540F2490D43440D4FF30040B92
:100E6800EF24BFB41A0050032461FFE54460021563
:100E7800440547E5477002054630070D782CE475B0
:100E8800F001120E02EF020D450216487403D20754
:100E98008003E4C207F5438B2C8A2D892EE4F544A0
:100EA800F546F547E54460077F20120E7380F57517
:100EB80045FFC201C200C202C203C205C206C2087F
:100EC800120E41FF700D3007057F00120E84AF47E8
:100ED800AE4622B4255FC2D5C204120E41FF24D00B
:100EE800B40A00501A75F00A784430D50508B6FFE0
:100EF8000106C6A426F620D5047002D20380D924A0
:100F0800CFB41A00EF5004C2E5D204021171D20125
:100F180080C6D20080C0D20280BCD2D580BAD205A9
:100F280080B47F20120E732002077401B54400407C
:100F3800F1120E38FF120E73020EACD208D20680E0
:100F480095120E38FB120E38FA120E38F94A4B7009
:100F58000679687A127BFF20022EE544602A7E001B
:100F68008E82758300120D1860060EEE654570F0CE
:100F7800C2D5EBC0E0EAC0E0E9C0E0EE1211D1D082
:100F8800E0F9D0E0FAD0E0FB120CFFFF60AAEBC05A
:100F9800E0EAC0E0E9C0E0120E73D0E02401F9D025
:100FA800E03400FAD0E0FBE5450460DCD545D980A3
:100FB80087D20280A21211B460F7E54570010412CD
:100FC80009C5A945600DE545600914F54512125B90
:100FD800EF60F3EA30E702F404C3995077EAF425A6
:100FE800450430E701E404F545800D1211B460C1F1
:100FF800EA054525451209C5EA7842F630E701E4D5
:10100800254504D54504200501141211D1E4C0E09A
:1010180012125B7842E6601320E70714F6120E5BA3
:10102800802204F6D0E014C0E07F00120E5BE54594
:101038006007120E521545800B300503120E52D070
:10104800E0020EACD0E00480C51211B460A0E54502
:10105800041209C57842EAF6E54520050260010454
:0510680024041211D167
:10106D0074FF04C0E012125B120E5BE54520050211
:10107D006003120E52D0E0B545E87F45120E65783B
:10108D0042E67F2B30E7047F2DF404C0E0120E738F
:10109D00D0E075F00A84C0F0120E5CD0E0120E5C48
:1010AD00020EAC791080027908C206C2088008D2FF
:1010BD00D5790A8004790AC2D5E545047002F54553
:1010CD00E4FAFDFEFF120E38FC7B08200113120E10
:1010DD0038FD7B1030000A120E38FE120E38FF7BE1
:1010ED0020EC3382D592D55013C3E43000069FFF18
:1010FD00E49EFEE42001039DFDE49CFCE4CBF8C2DC
:10110D0001EC700CCFCECDCCE824F8F870F380173D
:10111D00C3EF33FFEE33FEED33FDEC33FCEB33FB6E
:10112D00994002FB0FD8E9EB300105F8D0E0C44837
:10113D00B201C0E00AEC4D4E4F78207B0070C2EA40
:10114D00B5450040BCC0E01211D3D0F0D0E0200175
:10115D0004C4C0E0C4B201C0F0120E5CD0F0D5F0F2
:10116D00EB020EAC120E120F495310B0580F1A4C61
:10117D000F164210B44F10BC4410BC490F2F431032
:10118D00C2550FF3461051450FBD471288500F1E23
:10119D002D0F222E0F452B0F26230F432012712AC0
:1011AD000EDE4800000F3DE545B4FF037545061200
:1011BD000E38FC120E38FD120E38FE120E38FF7866
:1011CD003B0209F4790AA2D5200314300509B910A0
:1011DD00020404B9080104A2D5200602500104201E
:1011ED0002689202B544005034C0E07F20300319EC
:1011FD007F30A20272067205500F12122AC202C26D
:10120D0006C205C2087F30800F300503E9C0E01229
:10121D000E73300503D0E0F9D0E0B544CC3005179E
:10122D007F30B9100C120E737F583004077F788011
:10123D0003B90803120E733002057F2D020E737F62
:10124D00202008F87F2B2006F322920280CF7F000A
:10125D00B407005005243BF8E6FF22286E756C6C30
:10126D002900D201120E383001F8C201784430D570
:10127D000108F6020EDE2D50434958120E38240394
:10128D00B405004001E490128393120E64743A1277
:0A129D000E64D2037544040210B081
:10097B00E9D2E7C933E833F892D5EDD2E7CD33ECC2
:07098B0033FC5002B2D5223B
:10099200EC30E7100FBF000C0EBE00080DBD0004C6
:1009A2000BEB6014A2D5EB13FCED92E7FD2274FF72
:1009B200FCFDFEFF22E480F8A2D574FF13FC7D80CB
:0309C200E480EFDF
:1009C500F920E72824F950037907E4F42402FB18F9
:1009D500DBFDE624FB5014E9600DE4F618E604F6A9
:0F09E500B40A08E4F6D9F57401F60A22C2D52245
:1009F400ED33EC3392D5FA602AB4FF33EDC2E77BD2
:100A0400FF60067A0A7919E4227A0A792220D50449
:100A14007A0A791D224E614E002B494E46002D491B
:100A24004E4600E47A08F608DAFC7B00740722E8F4
:100A3400C0E0ECC0E0EDC0E0EEC0E0EFC0E0EA757D
:100A4400F010A4CAABF075F04DA42BFBE435F0FC18
:100A5400EA2410FAEB34C5FBEC34D9FCEDC2E7FF11
:100A640075F056A4F42411C5F0F434C58FF0A42A0B
:100A7400E5F03BE43CF620E714120CBFD0E0FFD0D5
:100A8400E0FED0E0FDD0E0FC120BF28014F404127E
:100A94000CBFD0E0FFD0E0FED0E0FDD0E0FC1208B7
:100AA40000D0E0F8E6FAEDD2E7CD33EC332482FB54
:100AB400E4C3CF33CFCE33CECD33CD33DBF37B079B
:100AC40075F00A846004F6081B0AE5F0F6088FF056
:100AD400740AA4FFACF08EF0740AA42CFEACF0509F
:100AE400010C8DF0740AA42CFDE435F0F608DBDE6D
:030AF40074072262
:100AF7000209B0E86480F8E933E83360110460F074
:100B0700ED33EC337009E8FCE9FDEAFEEBFF220464
:100B170060DED3EB9FEA9EE99DE8C2E78CF0C2F75F
:100B270095F0400CE8CCF8E9CDF9EACEFAEBCFFB2B
:100B370012097B85D0F05804700320D5B3E8047000
:100B4700075002B2D50209BA92D5EC0460F7E4CC9B
:100B5700C0E0C398F8603B94186008400DD0E0FBF4
:100B6700020992E4FBFAC9FC8028E830E406E4C9EC
:100B7700FBE4CAFCE830E305E4C9CACBFCE8540748
:100B87006010F8C3E913F9EA13FAEB13FBEC13FC53
:100B9700D8F130F52FC3E49CFCEF9BFFEE9AFEEDF6
:100BA70099FDD0E0FBEF4E4D4C701222DB0302099A
:100BB700B7EC2CFCEF33FFEE33FEED33FDED30E702
:100BC700EB020992EF2BFFEE3AFEED39FDD0E0FB89
:100BD70050130BBB00030209BAED13FDEE13FEEF32
:080BE70013FFEC13FC0209925C
:100BEF000209BAEC5D046005E8590470030209B00C
:100BFF0012097B580460F6EC4860F2EC7004FDFEBD
:100C0F00FF22C860DB2481C85009C39860025006D8
:100C1F000209B79850CAF582E9294B4A7005AB8291
:100C2F000209A675F0007C1A7880C3EF9BEE9AED4F
:100C3F0099400DC3EF9BFFEE9AFEED99FDE842F050
:100C4F00DC23ACF0D0E0FFD0E0FED0E0FDAB8220A3
:100C5F00E7101BEB60BAEC2CFCEF33FFEE33FEED2D
:100C6F0033FD020992E803F830E705C0F075F00094
:100C7F00EF2FFFEE33FEED33FD40B830E7C280AA11
:100C8F003F8000004120000042C80000447A00006D
:100C9F00461C400047C35000497424004B189680EF
:100CAF004CBEBC205A0E1BCA6753C21C749DC5AEE6
:100CBF00FB60065407601C2323120CEDEB543860C5
:100CCF0009120CD9120CE8120800ECF8EDF9EEFA43
:100CDF00EFCB22EB120CE880F1543803241C900C5C
:100CEF008FFE93FC0EEE93FD0EEE930ECE93FF222E
:1014D0000212A7E493A3F8E493A34003F68001F279
:1014E00008DFF48029E493A3F85407240CC8C3331D
:1014F000C4540F4420C8834004F456800146F6DFEC
:10150000E4800B01020408102040809016E9E47E7C
:10151000019360BCA3FF543F30E509541FFEE493E0
:10152000A360010ECF54C025E060A840B8E493A3A7
:10153000FAE493A3F8E493A3C8C582C8CAC583CAD2
:10154000F0A3C8C582C8CAC583CADFE9DEE780BE8A
:0116FB0000EE
:100CFF00BB010689828A83E0225002E722BBFE02F3
:090D0F00E32289828A83E4932225
:100D1800BB010CE58229F582E5833AF583E0225090
:100D280006E92582F8E622BBFE06E92582F8E222DA
:0D0D3800E58229F582E5833AF583E49322F4
:100D4500BB010689828A83F0225002F722BBFE018D
:020D5500F32287
:100D5700F8BB010DE58229F582E5833AF583E8F0D2
:100D6700225006E92582C8F622BBFE05E92582C87E
:020D7700F22266
:100D7900BC000BBE0029EF8DF084FFADF022E4CC5E
:100D8900F875F008EF2FFFEE33FEEC33FCEE9DEC27
:100D9900984005FCEE9DFE0FD5F0E9E4CEFD22ED6D
:100DA900F8F5F0EE8420D21CFEADF075F008EF2FB7
:100DB900FFED33FD4007985006D5F0F222C398FDA8
:050DC9000FD5F0EA2245
:0E0DCE00C3E49FFFE49EFEE49DFDE49CFC2236
:100DDC00E8600FECC313FCED13FDEE13FEEF13FFF5
:030DEC00D8F12219
:100DEF00E8600FEFC333FFEE33FEED33FDEC33FC62
:030DFF00D8F12206
:100E0200FAE6FB0808E6F925F0F618E6CA3AF622F1
:100E1200D083D082F8E4937012740193700DA3A36F
:100E220093F8740193F5828883E473740293686083
:060E3200EFA3A3A380DF83
:10164800EFB40A07740D121653740A309811A8994A
:10165800B8130CC2983098FDA899C298B811F63002
:0716680099FDC299F59922DA
:00000001FF
