:03000000020FA24A
:0C0FA200787FE4F6D8FD75811B020C8DF1
:100EB100496E70757420313A202020202020202096
:100EC10000496E70757420323A20202020202020A5
:100ED10020005028436C6173732031293A00502857
:100EE100436C6173732032293A00C210000040A0A4
:060EF100000040E00000DB
:100EF700E4F5A0C282C280C2817F38FE120F7E1243
:100F07000F357F067E00120F7E120F357F0C7E0095
:100F1700120F7E120F357F017E00120F7E120F35E2
:070F27007F807E00020F7EB7
:0B0F2E007F807E00120F7E7F047E009B
:100F3900E4FDFCC3ED9FEC9E5015E4FBFA0BBB00EE
:0F0F4900010ABA01F8BB7EF50DBD00010C80E472
:010F58002276
:100F7E00C280C281D2828FA07F0A7E00120F39C238
:020F8E008222BD
:100F9000D280C281D2828FA07F0A7E00120F39C216
:020FA0008222AB
:100F59008B148A158916AB14AA15A916120BBB6036
:100F6900130516E5167002051514F9120BBBFF12CD
:050F79000F9080E22250
:080E1D008F178E168D158C1441
:100E2500E4FFFE7D7A7C44AB17AA16A915A8141217
:100E350008F8120AEDAB07AA067C007D0A120BD44E
:100E45008D828C837C007D64AF03AE02120BD4C30C
:100E5500ED9582FFEC9583FE7C007D0A120BD48E06
:100E6500188F19AE02AF037C037DE8120BD4C3EDD6
:100E75009519FFEC9518CFC39582CF9583FE7C001D
:100E85007D64120BD48E1A8F1B7F30120F907F2E2C
:100E9500120F90E51B2430FF120F90E5192430FF47
:0C0EA500120F90AF82EF2430FF020F907C
:100C8D00120EF7120F2E7BFF7A0E79B1120F597FCC
:100C9D00887E13120F3975900FAC90E4120AB98F3C
:100CAD000B8E0A8D098C087FC0120F307BFF7A0ED8
:100CBD0079C2120F597F887E13120F3975900FACC0
:100CCD0090E4120AB98F0F8E0E8D0D8C0C900EEFD5
:100CDD00120C18AB0BAA0AA909A8081208F8900E55
:100CED00EB120C28120807C004C005C006C00790FF
:100CFD000EF3120C18AB0FAA0EA90DA80C1208F8C2
:100D0D00D003D002D001D000120807120A9E120D96
:100D1D00BBE4FBFA7980783F120807A804A905AA5D
:100D2D0006AB07E4FFFE7D807C3F120A018F138E18
:100D3D00128D118C10120F2E7BFF7A0E79D3120F9C
:100D4D0059AB13AA12A911A810E4FFFE7D807C3FB8
:100D5D00120803120E1D7FC0120F307BFF7A0E7921
:100D6D00DF120F59AF13AE12AD11AC10120E1D7F65
:060D7D00207E4E020F393A
:10080000020B59E86480F8E933E83360110460F0C2
:10081000ED33EC337009E8FCE9FDEAFEEBFF22045E
:1008200060DED3EB9FEA9EE99DE8C2E78CF0C2F759
:1008300095F0400CE8CCF8E9CDF9EACEFAEBCFFB25
:10084000120B2485D0F05804700320D5B3E804704F
:10085000075002B2D5020B6392D5EC0460F7E4CCEA
:10086000C0E0C398F8603B94186008400DD0E0FBEE
:10087000020B3BE4FBFAC9FC8028E830E406E4C93B
:10088000FBE4CAFCE830E305E4C9CACBFCE8540742
:100890006010F8C3E913F9EA13FAEB13FBEC13FC4D
:1008A000D8F130F52FC3E49CFCEF9BFFEE9AFEEDF0
:1008B00099FDD0E0FBEF4E4D4C701222DB03020B92
:1008C00060EC2CFCEF33FFEE33FEED33FDED30E753
:1008D000EB020B3BEF2BFFEE3AFEED39FDD0E0FBD8
:1008E00050130BBB0003020B63ED13FDEE13FEEF81
:0808F00013FFEC13FC020B3BAB
:1008F800EC4D6011E8497017ED33EC3304600DE4FA
:10090800FCFFFEFD22E933E8330470F8020B5912AC
:100918000B2458046009E4CC2481500628500902AD
:100928000B63284003020B60C0E0EB4A7044B980B7
:1009380006D0E0FB020B4FEF4E701CBD8008EBFFAA
:10094800EAFEE9FD80EBE98DF0A4FEE5F00209E19D
:10095800E9CDF9EAFEEBFFEF89F0A4FCE5F0CE89DA
:10096800F0A42EFFE435F0CD89F0A42DFEE435F097
:100978008067EF4E7005BD80D780C3EF8BF0A4ACC5
:10098800F0EE8BF0A42CFCE435F0F8EF8AF0A42C00
:10099800E5F038FCE433CB8DF0A42CFCE5F03BF813
:1009A800EE8AF0A42CFCE5F038F8E433CF89F0A403
:1009B8002CFCE5F038CF3400CE89F0A42FFFE5F009
:1009C8003EFEE433C98DF0A42EFEE5F039CD8AF061
:1009D800A42FFFE5F03EFEE43DFD33D0E0FB5007D9
:1009E8000BBB000F020B63EC2CFCEF33FFEE33FE66
:0609F800ED33FD020B3B94
:1009FE00020B63EC5D046005E859047003020B59A9
:100A0E00120B24580460F6EC4860F2EC7004FDFE04
:100A1E00FF22C860DB2481C85009C39860025006CB
:100A2E00020B609850CAF582E9294B4A7005AB82D9
:100A3E00020B4F75F0007C1A7880C3EF9BEE9AED97
:100A4E0099400DC3EF9BFFEE9AFEED99FDE842F043
:100A5E00DC23ACF0D0E0FFD0E0FED0E0FDAB822096
:100A6E00E7101BEB60BAEC2CFCEF33FFEE33FEED20
:100A7E0033FD020B3BE803F830E705C0F075F000DC
:100A8E00EF2FFFEE33FEED33FD40B830E7C280AA04
:100A9E00ED33EC33600A047003BD8004ECB2E7FC66
:010AAE002225
:100AAF0075F020800E75F010800575F0087D007EC2
:100ABF00007F003392D530D503120C0AEC3340106F
:100ACF00EF33FFEE33FEED33FDEC33FCD5F0ED22CB
:0E0ADF00E5F0247EA2D513CC92E7CDCEFF2207
:100AED00EDD2E7CD33EC3392D524814006E4FFFE01
:100AFD00FDFC22FCE4CFCECDCC24E0501174FF8060
:100B0D00EDC3CC13CCCD13CDCE13CECF13CF0470FC
:070B1D00F030D5DE020C0AE6
:100D830033DA929E35B16011377FE5FE39218489CC
:100D93003AAEC3FF3C1D955B3D6358473E75FDF07E
:100DA3003F3172183F800000C2D5020B63020B591A
:100DB300BD80FA50F3020B60ED33EC330460F17B3A
:100DC3003B7AAA79B8783F1208F8ED33EC3392D521
:100DD300247B5011A2D570DB500BED4480240450CA
:100DE30004A2D580CEEFFBEEFAEDF9ECF8120AED92
:100DF300EFF582F404FC120AB9120807C082900DC1
:100E0300837409120B7DED33CC33D0F092D525F0EA
:0A0E1300A2D57001C313CC13FD2219
:100B2400E9D2E7C933E833F892D5EDD2E7CD33EC17
:070B340033FC5002B2D52290
:100B3B00EC30E7100FBF000C0EBE00080DBD00041B
:100B4B000BEB6014A2D5EB13FCED92E7FD2274FFC7
:100B5B00FCFDFEFF22E480F8A2D574FF13FC7D8020
:030B6B00E480EF34
:100B6E00C0E0EFFBEEFAEDF9ECF81208F8D0E0F584
:100B7E00F0EFFBEEFAEDF9ECF8120C18A3A3A3A319
:100B8E00E8C0E0E9C0E0EAC0E0EBC0E0C0F0120867
:100B9E00F8120C28A3A3A3A3120807D0F0D0E0FBF1
:0D0BAE00D0E0FAD0E0F9D0E0F8D5F0D42284
:100BBB00BB010689828A83E0225002E722BBFE0238
:090BCB00E32289828A83E493226B
:100BD400C2D5EC30E709B2D5E4C39DFDE49CFCEE3C
:100BE40030E715B2D5E4C39FFFE49EFE120C38C370
:100BF400E49DFDE49CFC8003120C3830D507C3E46B
:060C04009FFFE49EFE22AA
:0E0C0A00C3E49FFFE49EFEE49DFDE49CFC22FB
:100C1800E493FC740193FD740293FE740393FF2222
:100C2800E493F8740193F9740293FA740393FB2222
:100C3800BC000BBE0029EF8DF084FFADF022E4CCA0
:100C4800F875F008EF2FFFEE33FEEC33FCEE9DEC69
:100C5800984005FCEE9DFE0FD5F0E9E4CEFD22EDAF
:100C6800F8F5F0EE8420D21CFEADF075F008EF2FF9
:100C7800FFED33FD4007985006D5F0F222C398FDEA
:050C88000FD5F0EA2287
:00000001FF
